:020000040800F2
:1000000000040020E1020008E3020008E302000807
:10001000E3020008E3020008E3020008E30200082C
:10002000E3020008E3020008E3020008D1E7000849
:10003000E3020008E3020008E3020008E30200080C
:10004000E3020008E3020008E3020008E3020008FC
:10005000E3020008E3020008E3020008E3020008EC
:10006000E3020008E3020008E302000831F7000899
:10007000B1F7000835F80008B9F800083DF90008A4
:10008000C1F9000845FA0008E3020008E30200088D
:10009000E3020008E3020008E3020008E3020008AC
:1000A00009F5000865F500081DF6000879F6000856
:1000B0004D040108E3020008E30200082D010108D5
:1000C00049030108E3020008E3020008E302000814
:1000D000E3020008E3020008E302000859050108F2
:1000E000E3020008E3020008E3020008E30200085C
:1000F000E3020008E3020008E3020008E30200084C
:10010000E3020008E3020008E3020008E30200083B
:10011000E3020008E3020008E3020008E30200082B
:10012000C9FA000849FB0008CDFB000851FC000893
:10013000D5FC0008E3020008E3020008E30200081F
:10014000E3020008E3020008E3020008E3020008FB
:10015000E3020008E3020008E3020008E3020008EB
:10016000E3020008E3020008E30200084D0801086A
:10017000E3020008E3020008E3020008E3020008CB
:10018000E3020008E3020008E3020008E3020008BB
:10019000E3020008E3020008E3020008E3020008AB
:1001C00072B6394880F30888384880F3098838487F
:1001D0004EF60851CEF20001086040F20000CCF269
:1001E00000004EF63471CEF200010860BFF34F8F6D
:1001F000BFF36F8F40F20000C0F2F0004EF688515E
:10020000CEF200010860BFF34F8FBFF36F8F4FF046
:100210000000E1EE100A4EF63C71CEF200010860DB
:10022000062080F31488BFF36F8F03F049FC0DF0B4
:1002300037FB4FF055301F491B4A91423CBF41F8F4
:10024000040BFAE71C49194A91423CBF41F8040BE0
:10025000FAE71A491A4A1B4B9A423EBF51F8040B5F
:1002600042F8040BF8E700201749184A91423CBFB6
:1002700041F8040BFAE70DF013FC0DF00DFC144CE3
:10028000144DAC4203DA54F8041B8847F9E709F02F
:10029000EFFA114C114DAC4203DA54F8041B8847B5
:1002A000F9E70DF0FBBB000000040020000C00206B
:1002B000000000080000002000040020484E010853
:1002C000000C0020F00F0020F00F0020A4420020BE
:1002D000A0010008A0010008A0010008A00100087A
:1002E0006EE700F000F8FEE72DE9F04F2DED108AE3
:1002F000C1F80CD0C3689D46BDEC108ABDE8F08FF4
:10030000002383F311882846A04700200EF00EFA40
:10031000FEE70EF0A5F900DFFEE7000053B94AB989
:10032000002908BF00281CBF4FF0FF314FF0FF30FD
:1003300000F074B9ADF1080C6DE904CE00F006F8D8
:10034000DDF804E0DDE9022304B070472DE9F04751
:10035000089D04468E46002B4DD18A42944669D9A9
:10036000B2FA82F252B101FA02F3C2F1200120FA8C
:1003700001F10CFA02FC41EA030E94404FEA1C48DA
:10038000210CBEFBF8F61FFA8CF708FB16E341EAD6
:10039000034306FB07F199420AD91CEB030306F15C
:1003A000FF3080F01F81994240F21C81023E63447D
:1003B0005B1AA4B2B3FBF8F008FB103344EA034421
:1003C00000FB07F7A7420AD91CEB040400F1FF3336
:1003D00080F00A81A74240F207816444023840EA73
:1003E0000640E41B00261DB1D4400023C5E90043AC
:1003F0003146BDE8F0878B4209D9002D00F0EF802F
:100400000026C5E9000130463146BDE8F087B3FA61
:1004100083F6002E4AD18B4202D3824200F2F98049
:10042000841A61EB030301209E46002DE0D0C5E94C
:10043000004EDDE702B9FFDEB2FA82F2002A40F098
:100440009280A1EB0C014FEA1C471FFA8CFE01269B
:10045000200CB1FBF7F307FB131140EA01410EFB3F
:1004600003F0884208D91CEB010103F1FF3802D2E6
:10047000884200F2CB804346091AA4B2B1FBF7F0E0
:1004800007FB101144EA01440EFB00FEA64508D903
:100490001CEB040400F1FF3102D2A64500F2BB8040
:1004A0000846A4EB0E0440EA03409CE7C6F120078F
:1004B000B34022FA07FC4CEA030C20FA07F401FAD5
:1004C00006F31C43F9404FEA1C4900FA06F3B1FB5E
:1004D000F9F8200C1FFA8CFE09FB181140EA0141C3
:1004E00008FB0EF0884202FA06F20BD91CEB010160
:1004F00008F1FF3A80F08880884240F28580A8F1B8
:1005000002086144091AA4B2B1FBF9F009FB101109
:1005100044EA014100FB0EFE8E4508D91CEB0101A7
:1005200000F1FF346CD28E456AD90238614440EA4A
:100530000840A0FB0294A1EB0E01A142C846A646CA
:1005400056D353D05DB1B3EB080261EB0E0101FA53
:1005500007F722FA06F3F1401F43C5E900710026B0
:100560003146BDE8F087C2F12003D8400CFA02FC06
:1005700021FA03F3914001434FEA1C471FFA8CFE16
:10058000B3FBF7F007FB10360B0C43EA064300FB06
:100590000EF69E4204FA02F408D91CEB030300F1A4
:1005A000FF382FD29E422DD9023863449B1B89B25B
:1005B000B3FBF7F607FB163341EA034106FB0EF3E4
:1005C0008B4208D91CEB010106F1FF3816D28B4291
:1005D00014D9023E6144C91A46EA004638E72E465D
:1005E000284605E70646E3E61846F8E64B45A9D255
:1005F000B9EB020864EB0C0E0138A3E74646EAE7C4
:10060000204694E74046D1E7D0467BE7023B614471
:1006100032E7304609E76444023842E7704700BFDA
:10062000844641EA000313F003036DD1403A41D3FD
:1006300051F8043B40F8043B51F8043B40F8043BBC
:1006400051F8043B40F8043B51F8043B40F8043BAC
:1006500051F8043B40F8043B51F8043B40F8043B9C
:1006600051F8043B40F8043B51F8043B40F8043B8C
:1006700051F8043B40F8043B51F8043B40F8043B7C
:1006800051F8043B40F8043B51F8043B40F8043B6C
:1006900051F8043B40F8043B51F8043B40F8043B5C
:1006A00051F8043B40F8043B51F8043B40F8043B4C
:1006B000403ABDD2303211D351F8043B40F8043BEC
:1006C00051F8043B40F8043B51F8043B40F8043B2C
:1006D00051F8043B40F8043B103AEDD20C3205D3FC
:1006E00051F8043B40F8043B043AF9D2043208D0F4
:1006F000D2071CBF11F8013B00F8013B01D30B8866
:1007000003806046704700BF082A13D38B078DD043
:1007100010F003038AD0C3F10403D21ADB071CBF15
:1007200011F8013B00F8013B80D331F8023B20F87F
:10073000023B7BE7043AD9D3013A11F8013B00F8B8
:10074000013BF9D20B7803704B7843708B78837040
:10075000604670470000000038B5124B1D68AA6B58
:1007600004461AB10023C2E9044338BD182000F042
:10077000B9F80246A86378B101200021C2E904015A
:10078000094B0A480A499160C2E900030B2393818F
:100790000023C2E9044338BD064B0748422100F05C
:1007A00059F800BF000C002034126DE60E33CDABBB
:1007B000ECDE0500784D0108904D01081C4B10B58A
:1007C0001C68A26B8AB113691A4954691A4803FB61
:1007D00001F100FB0411A3FB0030013341EB0001E8
:1007E000C2E9043121F0004010BD182000F07AF871
:1007F0000246A06388B1114C114B0E48114991601B
:100800009FED097BC2E900430B2393810E4B014608
:1008100082ED047BC2E9043110BD0C4B0C484E2123
:1008200000F018F8AFF300800100000000000000A5
:10083000000C00202DF451582D7F954C0E33CDAB7C
:1008400034126DE6ECDE05002E7F954C784D0108E4
:10085000904D010800B50B4C25681446EE681A4609
:1008600085B003460D464CB107490095CDE901140A
:100870003046064900F022F800F068FD04490C46B5
:10088000F3E700BF000C0020C44D0108D44D01085F
:100890009C33010808B513460022FFF7DBFF00BFB9
:1008A0000CB400B583B004AB53F8042B019300F0F3
:1008B00029F903B05DF804EB02B070470EB410B52F
:1008C00083B005AB064C53F8042B01930146206816
:1008D00000F018F903B0BDE8104003B0704700BF46
:1008E000000C0020024B0146186800F06DB800BFF4
:1008F000000C0020024B0146186800F003B800BF4E
:10090000000C0020002958D030B551F8043C83B0C9
:10091000002BA1F10404B8BFE418019001F096FA8D
:10092000284A0198136833B1A3420DD9216804EB1A
:10093000010C63452FD06360146003B0BDE8304004
:1009400001F086BAA34210D81A465B68002BF9D191
:10095000116802EB010C644519D02FD36360546019
:1009600003B0BDE8304001F073BA116802EB010C2E
:10097000A44516D022D8216804EB010C6345EDD1C3
:100980001D685B682944C4E900135460D5E72368F7
:1009900019441160D1E71D685B682944C4E900135C
:1009A000CAE7246821445418A3421160C5D1D3E991
:1009B00000432144C2E90013BFE770470C230360E2
:1009C000BBE700BFF00F0020F8B5CD1C25F00305F4
:1009D00008350C2D38BF0C25002D064623DBA94217
:1009E00021D8254F01F032FA3A6822B3144603E0C9
:1009F00063682246FBB11C4623685B1BF8D40B2BB3
:100A000015D8636894420CBF3B605360304601F0D8
:100A10001FFA04F10B00231D20F00700C21A01D0B9
:100A20001B1AA350F8BD0C2333600020F8BD2360CF
:100A30001C442560EAE77968C9B12946304610F0C0
:100A400093F9431C0CD0C41C24F00304A04205D02D
:100A5000211A304610F088F9013001D02560D5E721
:100A60000C233046336001F0F3F90020F8BD304626
:100A700010F07AF97860E0E7F00F00209368013B0E
:100A8000002B936011DA10B49469A34209DB0A29A0
:100A900007D01368581C1060197008465DF8044BA5
:100AA00070475DF8044B00F06BBB1368581C106076
:100AB00019700846704700BF9BB1F8B5134406464D
:100AC0000F46541E5D1E01E0AC4208D014F8011F11
:100AD0003A463046FFF7D2FF431CF5D1F8BD00205F
:100AE000F8BD0020704700BF936810B5144613B9D5
:100AF0005360184610BD00F041FE0023C4E90133E5
:100B000010BD00BF2DE9F04F88469FB015461C462A
:100B1000814618B18369002B00F0A280924B984562
:100B200000F0A480914B984500F0B180904B98451F
:100B300008BFD9F80C80B8F80C30180740F19D8038
:100B4000D8F81030002B00F0988000230B93297800
:100B5000884E059420238DF8313030238DF83230C3
:100B60000127002974D02C460B4604E014F8013FFD
:100B7000002B00F08F80252BF8D1B4EB050B40F053
:100B80008C802378002B63D000234FF0FF32CDE917
:100B90000723069309938DF85B301C93013404E01E
:100BA000069A07FA03F3134306932546052214F821
:100BB000011B304601F02CF8831B0028F0D1069B66
:100BC000D90644BF20228DF85B2029781A0744BF3C
:100BD0002B228DF85B202A2970D1059A11680432E6
:100BE00000290592C0F29B800991697801352E2970
:100BF00076D0614C0322204601F00AF838B1069BFA
:100C0000001B402404FA00F003430693013515F855
:100C1000011B5A488DF83010062200F0F9FF002819
:100C200000F08380564B002B6DD005AA0092554BE7
:100C3000424606A94846AFF300800390039B013368
:100C400006D00B9B039A297813440B9300298AD171
:100C5000B8F80C305B0617D40B981FB0BDE8F08FC6
:100C600000F06CFD404B98457FF45CAFD9F80480F0
:100C7000B8F80C3018073FF563AF4146484600F01E
:100C8000E3FA00283FF461AF4FF0FF30E5E7D9F811
:100C9000088050E7B4EB050BDAD0AA46C5F1010590
:100CA00003E0934536D91AF8011F42464846FFF73C
:100CB000E5FE013005EB0A02F3D1C9E7A1F13002EC
:100CC000092A94D8099B15F8011F03EB830302EB53
:100CD0004303A1F13002092AF5D92E29099388D1BD
:100CE00069782A292BD1059BA9781A6807920433C1
:100CF000002A05F102000593B8BF4FF0FF33054607
:100D0000B8BF079375E7059B073323F00703083344
:100D1000059396E70B9A23785A440B9232E749429F
:100D200043F00203099106935FE705AA0092154B71
:100D3000424606A9484600F0CBF803907EE7A1F1B1
:100D400030020023092A079305F101053FF651AF50
:100D500015F8011F03EB830302EB4303A1F13002FB
:100D6000092AF5D9079344E78C2E01086C2E010857
:100D70004C2E0108044E01080C4E0108104E0108CB
:100D800000000000B90A000810B4054C8446134660
:100D900020685DF8044B0A466146FFF7B3BE00BF0A
:100DA000000C00202DE9F84F92461F460A698B6817
:100DB000DDF828909A42B8BF1A46CAF8002091F888
:100DC00043300C46064613B10132CAF800202268AF
:100DD00091065DD5DAF800300233CAF80030226897
:100DE00012F0060F11461ED1E168CB1A002BD8BFB6
:100DF000114618DD04F1190B4FF0000805E0E56815
:100E0000DAF80030ED1A45450CDD01235A46394623
:100E10003046C847013008F10108F0D14FF0FF30EB
:100E2000BDE8F88F216894F84330003B18BF0123D8
:100E30008A060AD5E1185A1C302081F84300224462
:100E400094F8451082F84310023304F14302394606
:100E50003046C8470130E1D0236803F00603042B75
:100E60001DD0A3682269934225DD4FF000089B1A2C
:100E700098441A34002501E045451CDA0123224636
:100E800039463046C847013005F10105F4D1C5E7C0
:100E900012F0060F12D0003B18BF0123D5E7DAF895
:100EA0000030E1682269C91AA368934221EAE17817
:100EB000DDDC0029DDDC0020BDE8F88FE168DAF830
:100EC0000030CB1A002BD8BF114693DCABE700BF34
:100ED0002DE9F0470C4684B09046227E0C990746D7
:100EE000994604F14300002A33D0A2F15803DDB241
:100EF000202D67D8202B65D8DFE813F0DE006400D2
:100F000064006400640064006400640064006400C1
:100F10006400A3006E0064006400640064006E005E
:100F2000640064006400640021007F00C00064006D
:100F30006400AE0064007F0064006400E500236884
:100F40001A0640F104810B6862691D1D0D601B6863
:100F50001A60002382462361CDF80090434603AA1D
:100F600021463846FFF71EFF013020D02369524644
:100F700041463846C847013019D02368E068039ECF
:100F80009B0719D5831B002B16DD04F1190A0025D8
:100F900004E0E068039E831BAB420DDD0123524653
:100FA00041463846C847013005F10105F1D14FF0FF
:100FB000FF3004B0BDE8F087B042B8BF304604B09F
:100FC000BDE8F087012384F84220236104F1420A3E
:100FD000002384F84330BFE723681A0602D45E0674
:100FE00000F1C1800D682A6804350D601546002A9D
:100FF0006BDBDFF884C10A2610E023681D0640F190
:101000009C800B681D1D0D601D68DFF86CC16F2A88
:101010000CBF08260A26002384F843306268A260C9
:10102000002A7FDB236823F004032360002D5BD1BB
:10103000002A79D18246082E65D0A0EB0A002061F3
:101040008AE70B680122186804330B6004F1420A36
:1010500084F842002261BBE70B686268181D0860D3
:10106000D3F800A00021504600F0D2FD002800F087
:101070008180A0EB0A0060602061A9E7236843F04B
:10108000200323607822DFF8F4C084F845200A6842
:10109000151D0D601D0643D4590641D51588DE0780
:1010A00044BF43F020032360002D44D1236823F084
:1010B000200323601026AEE7582384F84530DFF87C
:1010C000B8C02368E3E72368DCE76268A2602D21EB
:1010D000002AC5F1000584F8431002DB23F0040365
:1010E0002360DFF894C00A268246B5FBF6F306FBC0
:1010F00013512A461CF801100AF8011DB2421D4680
:10110000F3D2082E99D12368D90796D5626823694E
:101110009A4292DC30230AF8013C0AF1FF3A8CE74C
:101120001568BCE7002DDFD19CF8003084F8423010
:1011300004F1420A7FE710266DE713F0400F0B68B9
:1011400003F104050D600CBF1D681D885DE713F0F9
:10115000400F0B68626903F104050D601B6814BF42
:101160001A801A60F5E60A68B2F9005004320A6083
:101170002A463CE760687FE7184E01082C4E0108BC
:10118000F8B50D461446064608B1836943B3254BAE
:101190009C422AD0244B9C4229D0244B9C4208BF1D
:1011A000F468A389A269A2601A0722D5236903B350
:1011B00022686169D31AEDB299422F4629DD0133C5
:1011C000A1680139A160511C2160157062699A42C1
:1011D00016D0A389DB0701D50A2D11D03846F8BDFA
:1011E00000F0ACFA0F4B9C42D4D17468D9E7B468D4
:1011F000D7E72146304600F027F838B92369D7E70A
:101200002146304600F034F90028E7D04FF0FF3790
:10121000E4E72146304600F02BF90028F6D1226899
:101220000123CDE78C2E01086C2E01084C2E0108FD
:1012300010B4044C03460A4620685DF8044B194676
:10124000FFF79EBF000C00203C4B70B51D680646A2
:101250000C460DB1AB69E3B1394B9C421FD0394B01
:101260009C424DD0384B9C4208BFEC68B4F90C301E
:1012700018079AB219D5216911B312F001002FD0C5
:101280000020A06060694042A06100292ED00020AB
:1012900070BD284600F052FA294B9C42DFD16C68A1
:1012A000B4F90C3018079AB2E5D4D1063ED55207EE
:1012B00028D4216943F00803A3819AB20029DCD124
:1012C00002F42070B0F5007FD7D02146304600F000
:1012D00011FCB4F90C3021699AB212F00100CFD19F
:1012E000950758BF6069A0600029D0D1120658BF89
:1012F0000846CDD543F04003A3814FF0FF3070BDC9
:10130000AC68B3E7616B51B104F14402914204D07F
:101310003046FFF7F7FAB4F90C3000226263216916
:101320000022C4E9001223F02403C3E7092243F09A
:10133000400332604FF0FF30A38170BD000C0020ED
:101340008C2E01086C2E01084C2E010808B50620D1
:1013500000F03CFE01200FF037FD00BF8B891A071B
:101360002DE9F0410C4680463FD44A68002A58DDFA
:10137000E66A002E52D00022D8F80050C8F80020AB
:1013800013F4805251D10123216A4046B047431CD7
:101390005ED0A389E66A5F0705D56368C01A636BF0
:1013A0000BB1236CC01A216A024600234046B047A5
:1013B000411C3CD1D8F80030002B38D01D2B01D077
:1013C000162B4DD123690022C4E90032616BC8F8A5
:1013D000005019B304F14403994202D04046FFF78C
:1013E00091FA00206063BDE8F0810E69B6B10D6826
:1013F0000E609A070CBF4B690023AD1B8B600BE09E
:101400002B463246216AA76A4046B847B0F1000C25
:10141000A5EB0C05664413DD002DF1DC0020BDE8D2
:10142000F0810A6C002AA3DCF8E7606DB3E70023C3
:10143000636023692360A389DB04C7D56065C5E7C2
:10144000A38943F040034FF0FF30A381BDE8F08152
:10145000D8F80030002B9CD01D2B06D0162B04D0C2
:10146000A38943F04003A381D9E7C8F80050D5E72A
:1014700038B50B69BBB10D46044608B18369B3B1F9
:101480000D4B9D4211D00D4B9D4213D00C4B9D42F4
:1014900008BFE568B5F90C302BB129462046BDE8F8
:1014A0003840FFF75BBF002038BD6568F2E700F009
:1014B00045F9E5E7A568EDE78C2E01086C2E0108DB
:1014C0004C2E010838B540B303690446E3B1174B0D
:1014D0001D680DB1AB69CBB1154B9C420FD0154BBC
:1014E0009C4221D0144B9C4208BFEC68B4F90C30EC
:1014F00053B121462846BDE83840FFF72FBF6C683E
:10150000B4F90C30002BF4D1002038BD284600F08F
:1015100015F9074B9C42E2D1F1E7084B08491868DE
:10152000BDE8384000F0C2BAAC68DFE7000C00202C
:101530008C2E01086C2E01084C2E0108482E010843
:101540007114000800207047014900F0AFBA00BFD5
:10155000711400080020704770B568224D1E02FB10
:1015600005F50E4605F17401FFF72EFA044640B169
:1015700000210C30C4E90016A06005F1680200F0FB
:1015800013FC204670BD00BF274B2DE9F0411E68BB
:10159000B369074653B348364FF00408D6E901341F
:1015A000013B04D51EE05A1C04F168041AD0B4F9BA
:1015B0000C50013B002DF6D11C4B6566C4E900556B
:1015C000C4E90253C4E90455A5610822294604F17F
:1015D0005C0000F0E9FBC4E90D55C4E91255204652
:1015E000BDE8F08135682DB12E46D7E7304600F0D2
:1015F0001FF8D0E74FF4D6713846FFF7E5F90446F7
:1016000068B10560C0F804800C302946A06025460A
:101610004FF4D07200F0C8FB34602E46BEE70C23B6
:1016200030603B60DBE700BF482E01080100FFFF90
:101630002DE9F84F344B35491A68816290424FF0DA
:101640000003C0E91233036504BF0123836105462B
:10165000FFF79AFF68602846FFF796FFA8602846C4
:10166000FFF792FF6F68E86000240423C7E9024394
:1016700008222146C7E90044C7E904447C66BC61EE
:1016800007F15C0000F090FBDFF88CB0AE68DFF88B
:101690008CA0DFF88C90DFF88C801D4BC7F828A059
:1016A000C7E9087BC7F82C90C7F830800822F360A0
:1016B000C6E90044C6E904447466B460B4612146D6
:1016C00006F15C0000F070FBC6E9086BC6E90AA9E8
:1016D000C6F83080EE680F4BF360C6E90044C6E9F7
:1016E00004447466B460B4612146082206F15C00CB
:1016F00000F05AFB0123C6E9086BC6E90B98C6F84F
:1017000028A0AB61BDE8F88F482E010849150008F4
:1017100009000100120002003D21000865210008B7
:10172000A5210008C5210008024B0349186800F0F4
:10173000BDB900BF482E010871140008836903B9C0
:1017400076E77047704700BF704700BF704700BF23
:10175000704700BF024B0349186800F087B900BF0B
:10176000000C002045150008024B0349186800F0E2
:101770007DB900BF000C0020551500089368002BB0
:1017800000F085802DE9F04FB1F90C300C461907B7
:10179000804683B0174698B225D523691BB310F055
:1017A00002033D682DD04FF0000ADFF8BCB2564668
:1017B000B9465E453346524628BF5B464046002E3A
:1017C00052D0216AA76AB847002856DDD9F80830F8
:1017D0001B1A8244361AC9F80830002BE9D10020C0
:1017E00003B0BDE8F08F21464046FFF72DFD0028ED
:1017F00040F03681B4F90C303D6898B210F0020325
:10180000D1D110F0010944D14E46009746B382056C
:10181000D4F808B040F18380B3455A4600F2B28054
:1018200010F4906F40F0BF8020680192494600F0AC
:101830003FFAA368019AA3EB0B012368A16013444C
:10184000B24623600026009B9868A0EB0A00D144B2
:1018500098600028C3D0B4F90C0080B2002ED6D115
:10186000D5E900960835D1E7D5E900A60835A0E707
:1018700021464046FFF7FCFD80B3B4F90C3043F03D
:1018800040034FF0FF30A38103B0BDE8F08F00208C
:1018900070471E46AA46994618461D46009756B3FD
:1018A00088B34A46D4E904132068B24228BF3246BE
:1018B000884205D9A16803EB010B5A4500F3A680C5
:1018C000934263DC216AA76A2A464046B847B0F1D2
:1018D000000BD2DDB9EB0B09CAD00120009A936846
:1018E000A3EB0B035D44A6EB0B069360002B3FF4C8
:1018F00076AF002ED4D10AF1080353E902569A4676
:101900000833002EF9D032460A21284600F080F92B
:10191000002800F09C800130A0EB0509C1E7206899
:101920002369984216D86369B34213D86FF0004216
:10193000B24228BF3246216A92FBF3F2A76A02FB49
:1019400003F340464A46B847B0F1000A95DDA6EBDE
:101950000A0678E7B345DA4628BFB24652464946FA
:1019600000F0A6F9A3682268A3EB0A035244A3601F
:101970002260002BEBD121464046FFF779FD00287D
:10198000E5D07AE72068B34632464EE72946019211
:1019900000F08EF9019AA3689B1AA3602368134490
:1019A0002360934696E723682169A3EB010B6369E3
:1019B00003EB430A0AEBDA7A0BF101034FEA6A0AF6
:1019C00033445345524684BF9A46524643052CD56C
:1019D00011464046FEF7F8FF00283BD05A462169E1
:1019E0000190FEF71DFEA289019B22F4906242F055
:1019F0008002A28103EB0B002361AAEB0B03C4F866
:101A000014A0A3602060B34632460EE729465A462A
:101A100000F04EF923685B44236021464046FFF7FF
:101A200027FD00283FF456AF27E7404600F012FAA2
:101A300003460028DED121694046FEF763FFB4F972
:101A40000C300C2223F08003C8F8002017E7721C2A
:101A5000914627E70C22B4F90C30C8F800200EE7B5
:101A60004FF0FF30BCE600BF00FCFF7F2DE9F041E6
:101A7000884600F148070026D7E90154013D0FD4FC
:101A8000A389012B05F1FF3506D9B4F90E300133D6
:101A9000204601D0C04706436B1C04F16804EFD117
:101AA0003F68002FE8D13046BDE8F0812DE9F843CA
:101AB0000746884600F148064FF00009D6E9015470
:101AC000013D11D4A389012B05F1FF3508D9B4F9E3
:101AD0000E300133214603D03846C04749EA000999
:101AE0006B1C04F16804EDD13668002EE6D148463F
:101AF000BDE8F883F0B58B890C46990797B007D5F8
:101B000004F147030122C4E90432236017B0F0BD99
:101B1000B4F90E10002905462DDB6A460FF046F990
:101B2000002827DB019E06F470464FF48067A6F577
:101B30000056B6FA86F6394628467609FEF744FF7F
:101B400030B3A3891A4AAA6243F08003C4E90407A8
:101B5000A3812060002ED9D0B4F90E1028460FF0D2
:101B600031F90028D2D0A38923F0030343F0010305
:101B7000A381CBE7A38913F0800F14BF40274FF454
:101B80008067394628460026FEF71EFF0028D8D178
:101B9000B4F90C309A05B9D423F0030304F14702D9
:101BA00043F002030121C4E90421A3812260ADE7CF
:101BB0004915000870B50C46B1F90E10002996B011
:101BC00016461D4613DB6A460FF0F0F800280EDBC0
:101BD000019901F47041A1F50051B1FA81F14FF47E
:101BE0008063490900202960336016B070BDB4F9E4
:101BF0000C3000221B062A6004D5402300203360ED
:101C000016B070BD4FF480630020336016B070BD15
:101C100001F0FF01102A2BDB10F0070F08D010F89D
:101C2000013B013A8B422DD010F0070F42B3F6D1A1
:101C3000F0B441EA012141EA014122F007047FF0BA
:101C400000070023F0E80256083C85EA010586EA11
:101C5000010685FA47F5A3FA87F586FA47F6A5FA4D
:101C600087F68EB9EED1F0BC01F0FF0102F0070259
:101C700032B110F8013B013A83EA010313B1F8D104
:101C80000020704701387047002D06BF35460338E5
:101C9000073815F0010F07D1013015F4807F02BF1E
:101CA000013015F4C03F0130F0BC0138704700BF6F
:101CB00088420DD98B1883420AD900EB020CBAB1C5
:101CC000624613F801CD02F801CD9942F9D170476F
:101CD0000F2A0ED8034602F1FF3C4AB10CF1010C69
:101CE000013B8C4411F8012B03F8012F6145F9D118
:101CF000704740EA01039B0750D1A2F1100370B571
:101D000001F1200C23F00F0501F1100E00F1100479
:101D1000AC441B095EF8105C44F8105C5EF80C5C87
:101D200044F80C5C5EF8085C44F8085C5EF8045CFF
:101D300044F8045C0EF1100EE64504F11004E9D1FC
:101D4000013312F00C0F01EB031102F00F0400EB52
:101D5000031327D0043C24F003064FEA940C1E44DE
:101D60001C1F8E465EF8045B44F8045FB442F9D150
:101D70000CF1010402F0030203EB840301EB840184
:101D800002F1FF3C4AB10CF1010C013B8C4411F80B
:101D9000012B03F8012F6145F9D170BD02F1FF3C21
:101DA00003469BE72246EBE7830730B548D0541E35
:101DB000002A3FD0CAB2034601E0013C3AD303F8FF
:101DC000012B9D07F9D1032C2DD9CDB245EA05256C
:101DD0000F2C45EA054536D9A4F1100222F00F0C6C
:101DE00003F1200EE6444FEA121C03F1100242E90F
:101DF000045542E9025510327245F8D10CF1010246
:101E000014F00C0F03EB021204F00F0C13D0ACF122
:101E1000040323F003030433134442F8045B9342A6
:101E2000FBD10CF003042CB1CAB21C4403F8012B03
:101E30009C42FBD130BD64461346002CF4D1F9E737
:101E400003461446BFE71A46A446E0E7704700BFC2
:101E5000704700BFF8B51446F9B1CAB106460D4641
:101E600000F0B4F9A04202D32F463846F8BD21460F
:101E70003046FEF7A9FD07460028F6D0224629463F
:101E8000FEF7CEFB30462946FEF73CFD3846F8BD4E
:101E90002746FEF737FD3846F8BDBDE8F840114645
:101EA000FEF792BD38B5446C0CB1002038BD8021DE
:101EB0000546FEF789FD0246686430B1031F7C3297
:101EC00043F8044F9342FBD1EFE74FF0FF3038BDAA
:101ED0001F29F8B5054608D8466C0C4617464EB182
:101EE00056F8240046F82470F8BD162303604FF01E
:101EF000FF30F8BD8021FEF767FD0646686440B1FB
:101F0000031F00F17C05002143F8041F9D42FBD113
:101F1000E6E74FF0FF30F8BD1F2938B5054620D859
:101F2000426C0C466AB152F8213053B1012B16D0E5
:101F3000591C10D00025204642F8245098472846C6
:101F400038BD284600F0F8F8224601462846BDE88C
:101F5000384000F0DBB816230360012038BD0020B4
:101F600038BD162303604FF0FF3038BD1F292AD833
:101F7000426C38B50C46054682B152F8243002EB6B
:101F800084024BB1591C19D0012B15D000252046D5
:101F900015609847284638BD012038BD8021FEF7DE
:101FA00013FD0246686458B1031F00217C3043F8DA
:101FB000041F9842FBD1E0E7032038BD022038BD62
:101FC0004FF0FF3038BD4FF0FF30704738B5144B3D
:101FD0001F281D681FD86A6C044662B152F8203071
:101FE0004BB1012B15D0591C0FD0002542F82050C1
:101FF0009847284638BD284600F09EF822460146FC
:102000002846BDE8384000F081B816232B60012037
:1020100038BD002038BD16232B604FF0FF3038BD8F
:10202000000C0020124B1F2870B51E6808D80D4602
:10203000716C044649B151F8240041F8245070BD38
:10204000162333604FF0FF3070BD80213046FEF71D
:10205000BBFC0146706440B1031F00F17C0C002200
:1020600043F8042F6345FBD1E5E74FF0FF3070BD27
:10207000000C002038B50B4B1D686C6C0CB10020B7
:1020800038BD80212846FEF79FFC686438B1031FE5
:1020900000F17C0243F8044F9342FBD1EFE74FF08D
:1020A000FF3038BD000C002038B5174B1F281D68C5
:1020B00026D86A6C044682B152F8243002EB8402BE
:1020C0004BB1591C1AD0012B16D0002520461560A3
:1020D0009847284638BD012038BD80212846FEF7A4
:1020E00073FC0246686458B1031F00217C3043F83A
:1020F000041F8342FBD1DFE7032038BD022038BD37
:102100004FF0FF3038BD00BF000C002070B50C460A
:10211000084D03460026204611461C462E600EF050
:102120005DFE431C00D070BD2B68002BFBD02360EC
:1021300070BD00BFF80F00200EF054BE10B50C4665
:10214000B1F90E100EF004FE002803DB636D0344AA
:10215000636510BDA38923F48053A38110BD00BF24
:10216000002070472DE9F0410C46B1F90C101F46D4
:10217000CB05054616460BD421F48051A1813B4680
:10218000B4F90E1032462846BDE8F0410EF0E8BD25
:10219000B4F90E10022300220EF0E0FDB4F90C1089
:1021A000EAE700BF10B50C46B1F90E100EF0D6FDEF
:1021B000A389421C0EBF23F4805343F4805360650F
:1021C000A38110BDB1F90E100EF0CCBD51F8040C76
:1021D0000028A0F10400BCBF0B58C018704700BF16
:1021E000032A70B515D940EA010C1CF0030F044610
:1021F0000B4621D1194620460E680568B54204F108
:10220000040403F1040317D1043A032A20461946B3
:10221000F0D8541EA2B100F1FF3C013901E0C3180F
:102220000CD01CF801EF11F8012F9645A4EB0C031C
:10223000F5D0AEEB020070BD541EECE7184670BD41
:10224000104670BD0000000000000000000000000B
:10225000000000000000000000000000000000007E
:10226000000000000000000000000000000000006E
:10227000000000000000000000000000000000005E
:1022800090F800F06DE9024520F007016FF0000CB6
:1022900010F0070491F820F040F049804FF000045E
:1022A0006FF00700D1E9002391F840F000F1080039
:1022B00082FA4CF2A4FA8CF283FA4CF3A2FA8CF371
:1022C0004BBBD1E9022382FA4CF200F10800A4FAD8
:1022D0008CF283FA4CF3A2FA8CF3E3B9D1E904232C
:1022E00082FA4CF200F10800A4FA8CF283FA4CF363
:1022F000A2FA8CF37BB9D1E9062301F1200182FA1D
:102300004CF200F10800A4FA8CF283FA4CF3A2FA22
:102310008CF3002BC6D0002A04BF04301A4612BA30
:10232000B2FA82F2FDE8024500EBD2007047D1E933
:10233000002304F00305C4F100004FEAC50514F0C2
:10234000040F91F840F00CFA05F562EA05021CBF93
:1023500063EA050362464FF00004A9E7010917BFCD
:102360000846022306230421820808BF0246C2F35E
:10237000470208BF0B460AB10133DBB2184670476B
:10238000030943EA0013DBB298009B1003F0330308
:1023900000F0CC0018434300401003F0AA0300F003
:1023A00055001843704700BF044901220B7802FA18
:1023B00000F023EA00030B70704700BF28160020CE
:1023C000034A0123117803FA00F0084310707047A4
:1023D00028160020104B93F9002022EA000040B29A
:1023E0004107187012D1D2B282420FD010B40B4CF8
:1023F000C0F3C7002278012101FA00F022EA0000B0
:1024000000221A7020705DF8044B7047044A52781D
:102410005207EBD4704700BF6E1A00202816002028
:10242000C815002010B41949194B1A4A08781B78AE
:102430001178194C194A03430B432178137029B9B9
:10244000174B5DF8044B01221A70704715480B4377
:102450000178137091B90523D91C134B0A4400204D
:1024600013F8011B00F1010C09B15FFA8CF09A42DC
:10247000F6D10028E4D000232370E1E70B4B93F959
:102480000030002BACBF05231D23E5E7361C0020E0
:102490007E1A00202A1600206F1A0020A4150020A2
:1024A000C4150020360F0020A6150020C8150020F6
:1024B0002C4A137859070BD500F0180108293FD092
:1024C00000F01401042904BF00F0FB0040F00800F4
:1024D000190707D500F01801182936D000F01401AB
:1024E00014293AD05278D10713D492070BD500F0B3
:1024F0001802182A1FD000F01102112A04BF00F0A0
:10250000EE0040F01800DB0602D500F0E70070474F
:10251000704700F01801082908D000F011010129C6
:1025200004BF00F0FE0040F00800DEE700F0F70016
:1025300040F00100D9E700F0E70040F01100E2E7C9
:1025400000F0F70040F00400C2E700F0E70040F0C0
:1025500014005278D107E0D4C7E700F0EB0040F058
:102560001800F6E7C8150020002070471E49F0B596
:102570004FF4805C00230F2601254FF0030E01333A
:1025800003F00702580092001CF0010F05FA03F750
:102590000EFA00F006FA02F21CD04C6824EA070496
:1025A0004C608C6824EA00048C60CC6824EA000447
:1025B000CC600C68072B24EA0000086006D8086A83
:1025C00020EA02024FEA5C0C0A62D8E7486A20EA75
:1025D00002024A620D2B4FEA5C0CD0D1024B186903
:1025E000C0F34030F0BD00BF000800480E4B1B7820
:1025F000D90703D49A0703D50420704702207047F7
:102600005B070CD4094B187838B1272807D8084B3A
:10261000C000A3FB0030400903D10120704708200F
:102620007047C0B2704700BF5616002058160020F1
:10263000CDCCCCCC9A4238BF8854704700B9704793
:10264000014B1B68184700BF300F00202DE9F04FE9
:102650008DB08846169D00929DF85C200292DDE9BF
:102660001819DDE91AAE074645B91EF480602EF050
:102670001002039040D19646019005E00EF480626E
:1026800003920EF0100201921EF0200F14BF4FF0C3
:10269000410B4FF0610BABF10A0B0DF1100C002454
:1026A00002E0202C12D03546B5FBF1F601FB1650A6
:1026B000C2B2092802F130008ABF5A44C2B2D2B273
:1026C0008D420CF8012B04F10104EAD21EF0020B3A
:1026D0001AD0019A002A68D0039A002A55D1002CFA
:1026E0004DD1102900F01881022900F02F813022ED
:1026F0008DF8102001245AE01EF0020B40F0D48027
:102700005C46CDF804B09646BAF1000F40F09880D0
:10271000A1450EF0010B40F21E81202C00F01B8120
:1027200004F130026A44213A302001E0202C04D028
:102730000134A14502F8010FF8D8BBF1000FC8D051
:10274000A24510D9202C00F08D8004F130026A449B
:10275000213A302002E0202C00F0848001345445DE
:1027600002F8010FF7D1019A4FF0000B002AB3D104
:102770001BE0039A002A40F0E08093462024A14504
:1027800000F0A780A24500F0A480102900F0AE80E0
:10279000022900F09480202C68D0224602F13001FA
:1027A0006944541C302201F8202C202C5ED0029A5F
:1027B000002A68D004F130026A442D21013402F865
:1027C000201C1EF0030F57D1A24555D9009E06EBE1
:1027D0000A052D1B994632464B46013641462020BC
:1027E000B847AE42F7D14B46A4B104F11002CDF880
:1027F00068A00DEB02092E199A46321B19F8010D3B
:10280000013C534641463546B847002CF5D1534666
:10281000DDF868A0BBF1000F0ED0009AAC1A544549
:102820000AD21E462A463346414620200134B84784
:10283000A24505F10105F5D828460DB0BDE8F08F99
:102840001EF0010B29D0029A002A3FD11EF00C0F76
:102850003CD1A1457FF674AF202C7FF461AFBAF173
:10286000200F80D9019A002A83D193461EF0030FCE
:1028700004D0009D2024B8E7009DB6E72024A2459F
:10288000A4D8009DB0E71EF0040F10D11EF0080F71
:102890003AD11EF0030FF4D1F1E7A1457FF619AF4D
:1028A000202C7FF43DAF14E796462C467FE704F1D9
:1028B00030026A442B21013402F8201C81E7202CCD
:1028C000D4D004F110026A4401340CE00AF1FF3A5A
:1028D000BFE7621E3FF405AF102942D002297FF402
:1028E0005DAF04A90A446221117054E71EF0200F65
:1028F0001AD0202CBAD0214601F130026A444C1C77
:10290000582102F8201C46E704F130026A442021D5
:10291000013402F8201C54E71EF0200F11D1782258
:102920008DF81020012239E7202C9FD004F11002ED
:102930006A440134782111702DE74FF0000B2024F8
:1029400023E758228DF81020012227E762228DF814
:102950001020012222E7BBF1000F7FF404AFDA461A
:10296000B7E61EF0200FA4F10201C5D1144601F113
:1029700010026A44DEE700BF0E4B1B78D90703D470
:102980009A0703D50F207047072070475B070AD4CA
:10299000094B187848B13F2805D8C0EB001040110A
:1029A00005D1012070471E20704705207047C0B236
:1029B000704700BF5616002057160020410619D553
:1029C000C24302F00F010131D2B20C4BC2F301122B
:1029D00003EB420C13F812309CF8012012FB01F2B9
:1029E00003EB22130206DBB201D55B42DBB283F0BC
:1029F0008000704700F00F010246E6E784360108C8
:102A00002831164B13F81130C3EBC30103EBC1019E
:102A100003EB8103C2EB23231C33002BC0F30722FB
:102A2000B8BF5B42A2EBC3031BB223EAE37384B0DB
:102A300002FB03331B1201908DF80530019B00202F
:102A4000DAB262F30700C3F3072262F30F20C3F385
:102A5000074363F3174004B0704700BF143B0108FD
:102A60002831164B13F81130C3EBC30103EBC1013E
:102A700003EB8103C2EB23231C33002BC0F307427B
:102A8000B8BF5B42A2EBC3031BB223EAE37384B07B
:102A900002FB03331B1201908DF80630019B0020CE
:102AA000DAB262F30700C3F3072262F30F20C3F325
:102AB000074363F3174004B0704700BF143B01089D
:102AC00000B5C0F3072C85B0ACEB03030190DBB27B
:102AD000B2B9002941DB0CFB03331B128DF8053022
:102AE000019B0020DAB262F30700C3F3072262F30E
:102AF0000F20C3F3074363F3174005B05DF804FBF1
:102B000082EAE27EAEEBE27E00290FFA8EFE12DB55
:102B1000A1EB0E00002A8E444FEA401191FBFEF11A
:102B2000C1F12001C9B213DBC1EB811201EB8201BB
:102B30001944CBB2CFE701EB0E00002AAEEB010E39
:102B40004FEA401191FBFEF1C1F16001C9B2EBDA2D
:102B500001EB41010B44DBB2BDE783F08003BAE730
:102B600000B5C0F3074C85B0ACEB03030190DBB2BA
:102B7000B2B9002941DB0CFB03331B128DF8063080
:102B8000019B0020DAB262F30700C3F3072262F36D
:102B90000F20C3F3074363F3174005B05DF804FB50
:102BA00082EAE27EAEEBE27E00290FFA8EFE12DBB5
:102BB000A1EB0E00002A8E444FEA401191FBFEF17A
:102BC000C1F12001C9B213DBC1EB811201EB82011B
:102BD0001944CBB2CFE701EB0E00002AAEEB010E99
:102BE0004FEA401191FBFEF1C1F16001C9B2EBDA8D
:102BF00001EB41010B44DBB2BDE783F08003BAE790
:102C000000B585B0C0F3072C01909DF818001B1A81
:102C10006344DBB2B2B9002937DB0CFB03331B1270
:102C20008DF80530019B0020DAB262F30700C3F390
:102C3000072262F30F20C3F3074363F3174005B085
:102C40005DF804FB82EAE27EAEEBE27E00290FFA39
:102C50008EFE0FDBA1EB0E008E44410191FBFEF1D5
:102C6000C1F12001C9B2002AB5BF5B18591ADBB205
:102C7000CBB2D2E701EB0E00AEEB010E410191FBAE
:102C8000FEF1C1F16001C9B2EDE783F08003C4E752
:102C900000B585B0C0F3074C01909DF818001B1AD1
:102CA0006344DBB2B2B9002937DB0CFB03331B12E0
:102CB0008DF80630019B0020DAB262F30700C3F3FF
:102CC000072262F30F20C3F3074363F3174005B0F5
:102CD0005DF804FB82EAE27EAEEBE27E00290FFAA9
:102CE0008EFE0FDBA1EB0E008E44410191FBFEF145
:102CF000C1F12001C9B2002AB5BF5B18591ADBB275
:102D0000CBB2D2E701EB0E00AEEB010E410191FB1D
:102D1000FEF1C1F16001C9B2EDE783F08003C4E7C1
:102D200084B001908DF80420019B0020DAB262F398
:102D30000700C3F3072262F30F20C3F3074363F3D3
:102D4000174004B0704700BF28310B4B13F8113007
:102D500084B09A1A01908DF80420019B0020DAB209
:102D600062F30700C3F3072262F30F20C3F30743A4
:102D700063F3174004B07047143B01080C4B03EB9E
:102D8000410184B091F8513001909A1A8DF80420D5
:102D9000019B0020DAB262F30700C3F3072262F35B
:102DA0000F20C3F3074363F3174004B0704700BF1D
:102DB000143B010810B4154C85B028310190C3B202
:102DC00004EB410014F811104078A0F1200C4FFAE8
:102DD0008CFCBCF1000FBCBFC0F120004FFA80FC9E
:102DE0008A1A624413448DF80430019B0020DAB241
:102DF00062F30700C3F3072262F30F20C3F3074314
:102E000063F3174005B05DF8044B7047143B0108AD
:102E100084B003EB43039DF81020019002EB5303B1
:102E20008DF80430019B0020DAB262F30700C3F38F
:102E3000072262F30F20C3F3074363F3174004B084
:102E4000704700BF4FFA81FCBCF1000F10B5BCBF4A
:102E500049424FFA81FCCCF1380C02FB02F21CFB18
:102E60000C2C84B01FFA8CF4012C01903ED9B4F5DF
:102E7000F75F9DBF4FEA541E0EF1080E5FFA8EFEFB
:102E80004FF0FF0E4FF0010C03E05FFA82FEF445B5
:102E900015D80CEB0E01C1F34F0212FB02F292B2F5
:102EA000C1F34700A2424FEA610100F1FF32ECD8C2
:102EB000FF291FD001305FFA80FCF445E9D90CF1FD
:102EC000FF3000EB4000C2B213448DF80430019B88
:102ED0000020DAB262F30700C3F3072262F30F2087
:102EE000C3F3074363F3174004B010BD04EB44047D
:102EF000E2B2E9E7FD22E7E784B00190084692B923
:102F0000002932DB8DF80430019B0020DAB262F335
:102F10000700C3F3072262F30F20C3F3074363F3F1
:102F2000174004B0704782EAE271A1EBE271002819
:102F300009B20FDBA0EB010C4FEA4C1C08449CFBD0
:102F4000F0F0C0F12000C1B2002AB4BF591AC9186C
:102F5000CBB2D7E700EB010C4FEA4C1C081A9CFBE4
:102F6000F0F0C0F16000C1B2EEE783F08003C9E782
:102F700084B09DF810C00190A3EB0C03DBB292B9B2
:102F8000002932DB8DF80430019B0020DAB262F3B5
:102F90000700C3F3072262F30F20C3F3074363F371
:102FA000174004B0704782EAE27CACEBE27C002977
:102FB0000FFA8CFC0EDBA1EB0C004001614490FB8E
:102FC000F1F1C1F12001C9B2002AB4BF5B185B1A4C
:102FD000DBB2D7E701EB0C004001ACEB010190FB49
:102FE000F1F1C1F16001C9B2EEE783F08003C9E7F6
:102FF00010B4144C85B02833019004EB430014F84E
:1030000013304078703B03FB01F1203802FB0012C3
:10301000002A9DF80410B8BF7F3201EBE2128DF850
:103020000420019B0020DAB262F30700C3F30722F9
:1030300062F30F20C3F3074363F3174005B05DF855
:10304000044B7047143B010810B4144C85B028336E
:10305000019004EB430014F813304078703B03FBFD
:1030600001F1203802FB0012002A9DF80410B8BFBD
:103070003F3201EBA2128DF80420019B0020DAB24E
:1030800062F30700C3F3072262F30F20C3F3074381
:1030900063F3174005B05DF8044B7047143B01081B
:1030A00010B503F1280C194C14F81CE004EB4C0388
:1030B000AEF1700C4FFA8CFCBCF1000F5B78BCBF1A
:1030C000CEF1700C4FFA8CFC203B02FB03F3CCF1E9
:1030D000380C84B001FB0C3212EB4202019048BF65
:1030E0007F32C0B200EBE2128DF80420019B002079
:1030F000DAB262F30700C3F3072262F30F20C3F3CF
:10310000074363F3174004B010BD00BF143B010830
:1031100010B584B054060190C0B242D56FEA020ED9
:103120005FFA8EFC0EF00F0E0EF1010E1F4BCCF36A
:10313000011C03EB4C0413F81C3094F801C0120678
:1031400001F128011A4A1CFB0EFE03EB2E13DBB221
:1031500012F8112044BF5B42DBB2803A1344DBB269
:10316000D90983F0800202D1C3F18003DAB253009F
:1031700003F0FE0303EB430203EB820300EB132394
:103180008DF80430019B0020DAB262F30700C3F32C
:10319000072262F30F20C3F3074363F3174004B021
:1031A00010BD02F00F0E9446C0E700BF8436010840
:1031B000143B0108124B283184B013F811C0019060
:1031C000ACEB02010B0646BFA2EB0C02D3B2CBB2B2
:1031D00003EB8303C0B203EB830300EB23238DF8DF
:1031E0000430019B0020DAB262F30700C3F3072228
:1031F00062F30F20C3F3074363F3174004B0704733
:10320000143B0108284A137813B1284B18787047EB
:103210004FF0904330B5012515705A6822F40072C2
:103220005A609A6822F440229A60DA6822F44022B6
:10323000DA601A6822F440221A605A6A22F0F00218
:1032400087B020215A6281F31188194C194A2369E9
:103250000A2101A80AF07AFC2169206808230B746E
:10326000036823605C6020610574FDF73DF8049BF2
:1032700013B101A80AF0D6FC002383F311884FF0A4
:1032800090430A4C1B6903F40073002B14BF012305
:103290000023237002D0012007B030BD0EF0D6FA13
:1032A000207807B030BD00BF831400208C150020AB
:1032B000E0120020A5BE000830B583B015460A0A0A
:1032C00004468DF805108DF8042001A9642302221C
:1032D000A0200FF0D5FA6423AAB22146A0200FF057
:1032E00007FB03B030BD00BF2DE9F047C6B0802218
:1032F000002105A83B4DDFF8F090FEF755FD0027B3
:103300000DF193046E4605F1140AB8463B0A8DF898
:1033100094308DF895700DF113030DF1950213F8AB
:10332000011F02F8011F9C42F9D16423822225A9C2
:10333000A0200FF0A5FA202383F3118832212B69F6
:103340004A4630460AF002FC2969286808230B74B3
:1033500003682B605D60012328610374FCF7C4FFE0
:10336000F36863B16B69B34212D0D6E900325345BA
:1033700013605A6003D09A68B1680A449A6088F36F
:1033800011888037B7F5803FC0D146B0BDE8F087DF
:1033900032686A615245C2F804A0C6F80C801BD09E
:1033A0009168B3680B444FF0804193604A6A298C5E
:1033B000521A92B29342E2D9981A01280AD94FF6CA
:1033C000FF72934228BF13460B444FF080429BB2DA
:1033D0005363D4E7931CF7E74FF08043C3F80C80A6
:1033E000CDE700BFE0120020A5BE000810B5002404
:1033F00082B0022221460DF10600ADF80640FFF72B
:103400005BFFBDF806204FF6E9639A4202D02046E2
:1034100002B010BD02B0BDE810400AF061B800BFB4
:103420002DE9F043002085B00D460FF0B9FB0028D0
:103430005FD1504E504C327A7189504F003A8146DC
:1034400018BF012221440DF10700FDF7E9F8D7F874
:103450000080202383F311884FF080435B6A89F357
:10346000118847490A689BB293424CD3454A126877
:103470000B60454909685B1A134442F20F704FF420
:103480007A720021E3FB020142F210720023FCF782
:1034900045FFA0EB0800B0F5FA7F3AD39DF80790FE
:1034A000DFF8F08001200FF07BFB00285FD1327E37
:1034B000718B052A214428BF052202A8FDF7B0F828
:1034C00001216378DB43DBB218F82320A378534053
:1034D00018F82320E378534018F8232023795A4022
:1034E000637918F82220534018F823304B4500D157
:1034F00091BB0024254905222846FDF791F8204676
:1035000005B0BDE8F0831F48026802F58032026012
:10351000AEE76378DFF87C809DF80790DB43DBB291
:1035200018F82320A3785340E27818F8233053404A
:10353000227918F82330534018F823206379534038
:1035400018F823309945ADD102AB18461049052231
:10355000FDF766F8034603E00AF072F902AB386043
:1035600093E80300094B012418601971C2E7002198
:10357000A7E700BF400F0020901B0020141600207A
:1035800008160020701A0020801A0020F81500206C
:10359000911B0020AC36010830B52D4C83B0256856
:1035A000202383F311884FF0804300225B6A82F36B
:1035B000118828490A689BB29A4219D8264A12688B
:1035C0000B60264909685B1A134442F20F704FF4EE
:1035D0007A720021E3FB020142F210720023FCF731
:1035E0009DFE401BB0F5FA7F08D2012003B030BD2C
:1035F0001948026802F580320260E1E7FFF702FE37
:10360000F0B90AF01DF9164B1B680344154916481A
:1036100091F84420B1F84610042A084403F102034B
:1036200028BF042201A90193FCF7FAFF04200FF040
:10363000B7FA48B90AF004F92060012003B030BDA0
:103640000AF0FEF80346E1E7002003B030BD00BFFA
:103650001C16002008160020701A0020801A002076
:10366000CC1B0020400F0020901B00202DE9F843C8
:10367000394C3A4E3A4D94F80C9096F800802F68E9
:10368000202383F311884FF0804300225B6A82F38A
:10369000118834490A689BB29A4254D8324A126857
:1036A0000B60324909685B1A134442F20F704FF401
:1036B0007A720021E3FB020142F210720023FCF750
:1036C0002DFEC01BB0F5FA7F25D2C14523D1284B72
:1036D000284D94F80D802E681F780AF0B1F8801BF1
:1036E000B0F5FA7F01D2B84533D0234B204993F887
:1036F0006420B3F86600003A18BF01222044FCF7AA
:103700008FFF06200FF04CFAD0B90AF099F8286024
:103710000120BDE8F883184B93F854205AB1B3F850
:1037200056303278E25405200FF03AFA40B90AF0E8
:1037300087F82860CBE705200FF032FA0028F6D092
:103740000020BDE8F8830848026802F58032026074
:10375000A6E70120BDE8F883901B00202816002072
:10376000F415002008160020701A0020801A00208E
:1037700082140020D0150020400F00202DE9F041D8
:1037800082B0FFF73FFD002859D02E4B1C6814B1C2
:103790002368984704462C4D2C4E95F80E803768C8
:1037A0008DF80740202383F311884FF080430022D7
:1037B0005B6A82F3118826490A689BB29A4238D81C
:1037C000244A12680B60244909685B1A134442F2C8
:1037D0000F704FF47A720021E3FB020142F2107283
:1037E0000023FCF79BFDC01BB0F5FA7F01D24445D6
:1037F00017D01A4B93F87420B3F87600003A18BF2C
:10380000012228440DF10701FCF70AFF07200FF001
:10381000C7F950B90AF014F83060012002B0BDE8D1
:10382000F081012002B0BDE8F081002002B0BDE8C7
:10383000F0810848026802F580320260C2E7084B56
:103840001C78A8E7F0140020901B00202016002010
:1038500008160020701A0020801A0020400F002057
:10386000CA1B00202DE9F041324B334E93E8030090
:10387000336984B001AD0024984285E803008DF8D7
:103880000C404BD001242D4F2023D7F8008083F328
:1038900011884FF0804300225B6A82F31188284927
:1038A0000A689BB29A4233D8264A12680B602649AE
:1038B00009685B1A134442F20F704FF47A720021C8
:1038C000E3FB020142F210720023FCF727FDA0EB9C
:1038D0000800B0F5FA7F00D2B4B11C4B93F88420F5
:1038E000B3F886000C2A28BF0C2229463044FCF786
:1038F00097FE08200FF054F9C0B909F0A1FF386015
:10390000012004B0BDE8F081012004B0BDE8F081E1
:103910000C48026802F580320260C7E77369994279
:10392000B0D1039AB3699A42ACD1ACE7002004B09D
:10393000BDE8F081841A0020901B0020241600208E
:1039400008160020701A0020801A0020400F002066
:10395000C3B230B54FEAC30C0CF0F80505EB850295
:1039600002EB02142C44C0F30721C0F307421806EF
:1039700085B0C4F307245BD413F0400E46D19B06F8
:103980007FD55534C4F3460CAB23FF291CD0002946
:1039900000F09080C943C9B211FB01F1090ACC4380
:1039A000E4B20131C9B21EFB04FE13FB04F31CFB9D
:1039B00004FC01EB132301EB1C2C01EB1E21DBB2F9
:1039C0005FFA8CFC5FFA81FEFF2A16D012FB02F12F
:1039D000003A18BF012202EB112212F0FF0265D05B
:1039E0000132D2B213FB02F31CFB02FC1EFB02F2FB
:1039F0001B0A4FEA1C2C4FEA122E00206CF3070022
:103A000063F30F206EF3174005B030BD13F0200EA6
:103A100030D105EBC50C05EB4C0C0CEBCC0C4FEA94
:103A20002C23C3F1AB03DBB2563CC4F3460CACE72A
:103A300013F0400C13D113F0200331D105EBC50C6A
:103A400005EB4C0C0CEBCC0CCCF3072C0CF1550E0D
:103A5000CCF1AB0C5FFA8EFECCF3460C95E713F07D
:103A6000200C13D104F15503DBB2C4F1AB045FFAAF
:103A700084FE8AE700236FEA040CCCF3460CA646CA
:103A800083E7E343DBB24FEA540C7EE7A4F156032D
:103A9000DBB24FF0000CC4F155045FFA84FE74E70A
:103AA0006FEA040E5FFA8EFE23466EE79646944652
:103AB0001346A2E74FF0FF0EF446734684E700BFBB
:103AC000704700BF00B583B04FEA102C4FF0000ED6
:103AD00001A98DF8050064230222A0208DF803E0DF
:103AE0008DF804C00EF0CCFE642301220DF1030119
:103AF000A0200EF0FDFE9DF8030003B05DF804FB6E
:103B00002DE9F041392886B007460CBF5025102515
:103B10000EF040FD1A4CDFF86C80202686F31188E9
:103B20000A212369424601A80AF010F82169206899
:103B300008230B740368236001225C602061027417
:103B4000FCF7D2FB049B01A873B10AF06BF80023C9
:103B500083F31188013DADB2002DDFD1384606B0A8
:103B6000BDE8F0410EF0E0BD83F31188013DADB238
:103B7000002DD3D1384606B0BDE8F0410EF0D4BDDB
:103B8000E0120020A5BE00082DE9F047624A634B11
:103B900016781B7884B01E43ADF804004FF48C6592
:103BA00007244FF010094FF0000804E0013C631CAB
:103BB000A5F1A00513D046FA04F3DA07F6D5052CD3
:103BC0005FFA84FA07D89DF80530092B03D89DF8D1
:103BD0000470072F09D9504604B0BDE8F0874FF0B4
:103BE000000A504604B0BDE8F0877F0019FB03735C
:103BF0005F1907F127038DF80D301B0A8DF80C3083
:103C00000222642303A9A0208DF80B800EF038FE59
:103C1000642301220DF10B01A0200EF069FE28376C
:103C20009DF80B308DF80D703F0A8DF80C70022254
:103C30001F0203A96423A0208DF80B800EF020FE44
:103C400064230DF10B010122A0200EF051FE9DF81E
:103C50000B303B43E72B47D8DF2B17D9A3F1E0020A
:103C6000072A45D801A151F822F000BFD73B000830
:103C7000F13C0008D73B0008D73B0008D73B0008C1
:103C8000F13C0008D73B0008D73B0008392B3CD853
:103C9000282B33D9A3F12902102A29D801A151F8E0
:103CA00022F000BFD73B0008D73B0008F13C0008DA
:103CB000F13C0008F13C0008F13C0008F13C000830
:103CC000F13C0008D73B0008F13C0008F13C00083B
:103CD000F13C0008D73B0008F13C0008F13C00082B
:103CE000F13C0008D73B0008B3F5005FBFF473AFA9
:103CF000EF2B3FF670AFBE2B3FF66DAF032B3FF6B9
:103D00006AAF012B3FF452AF65E7822BF3D15046E7
:103D100004B0BDE8F08700BF281600208214002000
:103D200070B584B00288ADF80820034602981C786C
:103D30005D78FFF729FF052803D8092D01D8072C46
:103D40002DD900200446230B023BC4F303240D2B82
:103D500008D8DFE803F0191907070D070707191935
:103D60000A07070A002004B070BDE00804B070BD67
:103D7000E72802D8012004B070BDA0F1F100B0FA2C
:103D800080F0400904B070BDF028F3D0F02800F2B4
:103D9000AA80E7288CBF0020012004B070BD640019
:103DA000A02604EB051416FB004404F127031A0AAD
:103DB00000258DF80D308DF80C206423022203A914
:103DC00030468DF807500EF05BFD642301220DF1A3
:103DD000070130460EF08CFD04F128008DF80D002F
:103DE000000A03A98DF80C006423022230469DF8D6
:103DF00007408DF807500EF043FD64230DF10701D5
:103E0000304601220EF074FD9DF8070024020443A1
:103E1000E72C00F24881DF2C40F2C880A4F1E003D7
:103E2000072B05D8DFE803F0160456483E04332577
:103E3000B4F5A24F80F0A381FF2C61D8EF2C00F2E3
:103E4000A681A72C6AD8A42C00F2CC81012C51D1D8
:103E5000204678E7B04B1A78D50700F1E3815B780C
:103E6000D80740F1CB81D1063FF56BAFE324204664
:103E7000DDE0A94B1A78110700F1DA815B789E0723
:103E800000F1DC81D5063FF55CAFE720CFE0A24B27
:103E90001B781D0740F1B881D8063FF552AFE724E3
:103EA0002046C4E09C4B5A78920740F1A9811B78C8
:103EB000DE063FF546AFF2E7974B1A78550700F15B
:103EC000B4815B78D80700F1B681D1063FF539AFF0
:103ED000E320ACE0904B1B785A0740F19381DE065B
:103EE0003FF52FAFC2E7A0F1F400B0FA80F040092F
:103EF00004B070BD231FA02B31D90024204622E737
:103F0000B4F5A04F15D2B4F5804F80F07281A4F5BE
:103F10008073B3F5F85FF0D2E0B214E7BE2C1AD884
:103F20005834E4B27D4B33F8140040F48844C0B2F6
:103F300009E7C4F38100C4F30112400104F0030453
:103F4000012303FA04F440EA0220204340F40C4029
:103F500084B2C0B2F7E6A4F1E003072BCDD8230B5F
:103F6000023BE0B2C4F303240D2B3FF6FBAE01A2EB
:103F700052F823F0933D0008933D0008653D00088A
:103F8000653D0008713D0008653D0008653D00087D
:103F9000653D0008933D0008933D00086B3D000817
:103FA000653D0008653D00086B3D0008392C2DD8A3
:103FB000282C7FF64BAFA4F12903102B3FF638AF26
:103FC00001A252F823F000BF994000088B4000087E
:103FD000313E0008313E0008313E0008313E000805
:103FE000313E0008313E00087D400008313E0008A7
:103FF000313E0008313E000823400008313E0008F1
:10400000313E0008313E000813400008822C7FF446
:1040100018AF414B1B789E073FF47EAFE02420464B
:1040200091E63D4B1B78980600F1F3803520230B79
:10403000023BC4F303240D2B3FF694AE01A252F8C9
:1040400023F000BF8D3D00088D3D0008653D000850
:10405000653D0008713D0008653D0008653D0008AC
:10406000653D00088D3D00088D3D00086B3D000852
:10407000653D0008653D00086B3D0008264B1B7838
:104080005A0600F1C38031205DE6234B1B785B06A6
:1040900000F1C5802A2056E61F4B1B78990600F1D7
:1040A000BB8029204FE6B4F5A44FFFF4C1AEB4F5B0
:1040B000AC4F16D2B4F5AA4F57D2B4F5A84F23D2BD
:1040C00004F003030120B4F5A64F00FA03F0C4F393
:1040D000850440EA441043D240F40C4084B2C0B29C
:1040E00031E6B4F5B44F1BD2B4F5B24F2BD2A4F5E0
:1040F000B043FF2B00F2A5804AF2F00040EA042012
:1041000000B284B2C0B21EE6E0B24AF2F40444EA5D
:10411000002404F0F40016E6C8150020F434010869
:10412000A4F5C043B3F5005F80F08B80C4F3042096
:10413000FEF7BEF90002E4B200F4F850204340F468
:104140000054C0B2FFE504F00F00FEF7B1F9C4F36C
:10415000031440EA042040F4104084B2C0B2F2E5F7
:1041600040F40A4084B2C0B2EDE5E0B2FEF7A0F937
:10417000040204F4F85444F400540020E3E5E3B2EC
:104180004AF2F10444EA032404F0F100DBE544F4CC
:10419000A043C3F30333023BE0B2C4F303240D2B6B
:1041A0003FF6E0AD01A252F823F000BF893D0008C0
:1041B000893D0008653D0008653D00087B3D00081D
:1041C000653D0008653D0008653D0008893D000823
:1041D000893D00086B3D0008653D0008653D00080D
:1041E0006B3D0008A4F1240040F4804084B2C0B2CA
:1041F000A9E5C4F30B0444F420448DE6E02016E75F
:10420000E42014E7E22012E7E62010E72A24204603
:1042100099E5292420460AE73524204693E53124F0
:10422000204690E53924204601E7E2242046FEE6B8
:10423000E6242046FBE6E0242046F8E6E424204677
:10424000F5E628462C467EE52DE9F04F1C468DB05C
:1042500083462078169B8A469146002800F03382D8
:104260000027984609E03A464B465146D847013761
:1042700001342078002800F0C9802528F3D1631C80
:1042800000211C4613F8010BA0F12002102A0AD8C5
:10429000DFE802F03B09093809090909090909356C
:1042A000093209092F00A0F13003092B40F28F8059
:1042B0002A2800F0BA8000252E2800F098800026D9
:1042C000A0F16803122B27D8DFE813F004012600C1
:1042D000FF002600F7002600260026002600260004
:1042E000260026002600260026002600260026009E
:1042F000220041F00101C4E741F00201C1E741F0B1
:104300000401BEE741F01001BBE741F00801B8E746
:10431000607841F480710134A0F12503532B00F241
:104320008E80DFE813F028018C008C008C008C005C
:104330008C008C008C008C008C008C008C008C001D
:104340008C008C008C008C008C008C008C008C000D
:104350008C008C008C008C008C008C008C008C00FD
:104360008C008C008C008C008C008C008C008C00ED
:104370008C008C008C008C008C008C008C008C00DD
:104380008C008C008C008C008C008C0093008C00C6
:104390008C008C008C008C008C008C008C008C00BD
:1043A0009300460193008C008C008C008C009300DD
:1043B0008C008C008C008C008C00930030018C00F1
:1043C0008C00DF008C0093008C008C009300002593
:1043D00005EB850500EB450514F8010FA0F130034E
:1043E000092BA5F13005F3D92E287FF468AF60784A
:1043F000A0F13002092A41F4806104F1010340F286
:10440000F2802A2800F0FE801C4658E7B94587BF95
:104410003C46224609F1FF323C464B4651460020BD
:10442000D84720460DB0BDE8F08F58F8045B60789F
:10443000002DBCBF41F002016D4201343CE73A4619
:104440004B46514601340137D84712E7782800F02F
:104450003281582800F0E3806F2800F0EA8062285B
:1044600000F07881692821F010034FF00A0C40F029
:10447000E3804A0540F1E78023F00103692800F05A
:10448000E280642800F0DF8013F4007240F0A9801D
:10449000D90500F17381580658F8042B00F15881B2
:1044A000190648BF92B20593002300920495039623
:1044B000CDF808C03A460193E0E060786C2800F03F
:1044C000F08041F48071013426E7607841F4007196
:1044D000013421E76078682800F0E88041F080012D
:1044E000013419E7434653F8042B07920993002E31
:1044F00040F08F8010786FF00102002800F05081AA
:10450000079B01321A44984601E0904503D018F801
:10451000013F002BF9D1079BA8EB0303089311F48B
:1045200080630A9304D0089BB34228BF33460893A4
:1045300011F002030B9300F0EF80002800F0DC8004
:104540000A9B002B00F0A280DDF81C803E443A4616
:1045500005E0D84718F8010F013720B13A46BE42AE
:104560004B465146F5D10B9B002B40F0C580DDF842
:10457000248001347DE63A464B46514625200134DD
:104580000137D84775E6082304931023029341F0BE
:104590002101002305910396019358F8043B0093F1
:1045A0003A464B4651465846FEF750F80134074606
:1045B0005FE6880740F18A8058F8040B3A464B467C
:1045C000C0B25146D8477E1C012D98BF374608D946
:1045D0002F4432464B46013651462020D847BE4232
:1045E000F7D1013445E6002606EB860600EB4606C9
:1045F00013F8010FA0F13002092AA6F13006F3D911
:104600001C465DE658F8046BA07826EAE67602348C
:1046100056E61078002800F0C180721E70E721F085
:104620000C034A0543F020034FF0100C3FF524AF74
:104630002AE74FF0080C0B46642818BF19463CD1F6
:1046400059053FF519AF9A05CBD4D80500F18680FE
:10465000590658F8042B78D4180640F19A8012B203
:1046600082EAE271A1EBE27189B2D20F0192059365
:1046700004950396CDF808C000913A464B46514642
:104680005846FDF7E3FF01340746F2E5079E3A4638
:104690004B465146D84716F8010F01370028F6D18E
:1046A00061E7A07841F44071023435E6A07841F02A
:1046B000C001023430E64FF0100C21F00C03490524
:1046C0007FF5DCAED8E604460246A6E6012D6ED99B
:1046D0007B1E1D443A464B46013751462020D847A1
:1046E000AF42F7D158F8040B4B46C0B22A465146A8
:1046F000D8476F1C0134BCE5089B9D423E467FF6BF
:1047000036AF2F44FF1A32464B4601365146202021
:10471000D847BE42F7D12AE7089A954202F1010331
:1047200040D905EB0708A8EB02083A464B4601378B
:1047300051462020D8474745F7D1079B18786B1C76
:10474000089300287FF4FCAE11E7D2B211468CE743
:10475000D2B2A8E64FF0020C0B466DE758F8041BE6
:10476000059300294FEAD173B8BF49423A460495F0
:104770000396CDF808C0019300917FE7019205935D
:1047800004950396CDF808C058F8043B00933A46C8
:1047900074E782EAE271A1EBE27166E70890BEE697
:1047A0000896BCE6089300287FF4CAAEDFE63D46D3
:1047B00098E700BF0FB410B584B006AC4FF0FF32DD
:1047C00054F8043B009402A904480394FFF73CFD0D
:1047D00004B0BDE8104004B0704700BF3D2600089B
:1047E00070B53F4D3F4820222946FDF7F9FC18B926
:1047F0003D4B00221A7070BD3C4B3A4C1E68AC46D3
:10480000BCE80F000FC49CE80F0084E80F00002EE6
:10481000EED0374B1B7843B1364B93F90030002B69
:1048200003DA2A786A7006232B70334C73682C489D
:10483000984723785A07DBD5DE0703F0010206D438
:10484000D2B2002AD4D02D48FFF7B4FFD0E72C48CD
:10485000FFF7B0FF2378D80703F00102F0D52978DD
:104860002848FFF7A7FF2378D90703F00102E7D50F
:1048700069782448FFF79EFF237803F00102DB07E5
:10488000DED5A9781F48FFF795FF2378DE0703F0F0
:104890000102D5D5E9781B48FFF78CFF2378D807AC
:1048A00003F00102CCD529791648FFF783FF23785E
:1048B000D9079DD569791348FFF77CFF2378DA077C
:1048C00096D5A9790F48FFF775FF2378DB078FD5B9
:1048D000E9790C48FFF76EFF227802F00102B0E799
:1048E000A4150020D4150020C4150020F0140020C9
:1048F000360F0020C815002080140020584D0108F4
:10490000AC2E0108C02E010810B41A491A4B1B4ADC
:1049100008781B7811781A4C1A4A03430B43217804
:10492000137031B9184B5DF8044B01221A70FFF770
:1049300057BF16480B430178137091B90523D91C52
:10494000134B0A44002013F8011B00F1010C09B1BC
:104950005FFA8CF09342F6D10028E3D00023237055
:10496000E0E70C4B93F90030002BACBF05231D236F
:10497000E5E700BF361C00207E1A00202A16002022
:104980006F1A0020A4150020C4150020360F002047
:10499000A6150020C81500202DE9F04F2DED028B43
:1049A000344CDFF8E09024788BB00A2C34BF0A2412
:1049B0000124019308EE101A631C2F4C03928346C6
:1049C00002934FF0010A202686F31188019B18EE0E
:1049D000101A58469847002383F31188002838D1CD
:1049E000029B0AF1010A9A4528D00AFB0AF80546FB
:1049F000012786F31188012123694A4605A809F099
:104A0000A5F82169206808230B74036823605C60A3
:104A100020610774FBF768FC089B05A843B109F007
:104A200001F9002383F311880135A845E1D1CBE7D3
:104A300083F3118801354545DBD1C5E70F4B1B7862
:104A4000DB0705460CD428460BB0BDEC028BBDE855
:104A5000F08F054628460BB0BDEC028BBDE8F08F09
:104A600003990748FFF7A6FE28460BB0BDEC028B62
:104A7000BDE8F08F7A140020E0120020801400209E
:104A8000C82E0108A5BE00082DE9F04F3D4DDFF806
:104A900014E13D4889B000230DF1140805930693F5
:104AA000ADF81C30464605F1140C01274FF090413B
:104AB0004EF2070455F8042B02F00F0907FA09F922
:104AC00022F00F021FFA89FAA2F81AA0136919EA54
:104AD000030FFBD1D1F810B0D0F81090A2F818A0B5
:104AE000CBF380034FEAAB1B4FEA29220BF0020BFA
:104AF00022F01F0243EA0B034FEA8909134309F02E
:104B00001C0943EA09039EF80020DB43DBB212B123
:104B100093FAA3F31B0E06F8013B4FF4807201E0F9
:104B2000013A08D00B6903F08403842BF8D10369A0
:104B300034EA0303F4D1AC45BCD1144B059A19688F
:104B4000914200F0B18198E80700104B104E114FD0
:104B5000114D347803C31A803B78012100912C4415
:104B6000002B40F0098208F06BFE0C4B18600C4BD8
:104B700097F800801B68DFF814C0601E0833043407
:104B8000A1E000BF5440010800040048741A00204E
:104B9000DA1B00207B1400202C1600200C160020AD
:104BA0007C140020340F002013F8081C11F0FE0FB5
:104BB00006D011F0010903D169F347018EF8001006
:104BC00012F0020F13F8071C40F0A48011F0FE0F42
:104BD00008D09EF8011011F0010903D169F34701D3
:104BE0008EF8011012F0040F13F8061C40F0AE808E
:104BF00011F0FE0F08D09EF8021011F0010903D148
:104C000069F347018EF8021012F0080F13F8051C23
:104C100040F0B88011F0FE0F08D09EF8031011F09C
:104C2000010903D169F347018EF8031012F0100F48
:104C300013F8041C40F0C28011F0FE0F08D09EF85B
:104C4000041011F0010903D169F347018EF8041033
:104C500012F0200F13F8031C40F0CC8011F0FE0F6F
:104C600008D09EF8051011F0010903D169F347013E
:104C70008EF8051012F0400F13F8021C40F0D68099
:104C800011F0FE0F08D09EF8061011F0010903D1B3
:104C900069F347018EF8061012F0800F13F8012C0B
:104CA00040F0E08012F0FE0F08D09EF8072012F0CE
:104CB000010103D161F347028EF80720A04203F1FE
:104CC000080300F0E9801CF8011B10F8012F4A408E
:104CD00012F0010FA3F1080E3FF466AF13F8089C21
:104CE00019F0FE0F7FF46CAF01F0010141F00A01F1
:104CF0008EF8001013F8081CC90742BF017881F034
:104D00000101017012F0020F13F8071C4FF00108A7
:104D10003FF45CAF11F0FE0F7FF464AF1CF8011C90
:104D2000C1F3400141F00A018EF8011013F8071C8D
:104D3000C90742BF017881F00201017012F0040F2F
:104D400013F8061C4FF001083FF452AF11F0FE0FAC
:104D50007FF45AAF1CF8011CC1F3800141F00A0135
:104D60008EF8021013F8061CC90742BF017881F0C3
:104D70000401017012F0080F13F8051C4FF0010830
:104D80003FF448AF11F0FE0F7FF450AF1CF8011C48
:104D9000C1F3C00141F00A018EF8031013F8051C9D
:104DA000C90742BF017881F00801017012F0100FAD
:104DB00013F8041C4FF001083FF43EAF11F0FE0F52
:104DC0007FF446AF1CF8011CC1F3001141F00A0149
:104DD0008EF8041013F8041CC90742BF017881F053
:104DE0001001017012F0200F13F8031C4FF001089E
:104DF0003FF434AF11F0FE0F7FF43CAF1CF8011C00
:104E0000C1F3401141F00A018EF8051013F8031C9C
:104E1000C90742BF017881F02001017012F0400FF4
:104E200013F8021C4FF001083FF42AAF11F0FE0FF7
:104E30007FF432AF1CF8011CC1F3801141F00A016C
:104E40008EF8061013F8021CC90742BF017881F0E2
:104E50004001017012F0800F4FF0010813F8012C8F
:104E60003FF420AF12F0FE0F7FF428AF1CF8012CA6
:104E7000D20942F00A028EF8072013F8012CD1075C
:104E800042BF027882F080020270A0424FF0010817
:104E900003F108037FF417AF009B87F8008001201F
:104EA000E3B109B0BDE8F08F5968069A91427FF4EA
:104EB0004AAE1A89BDF81C309A427FF444AEA24E25
:104EC000A24FA34D34783B78002200922C44002B53
:104ED00052D1A04B1B78002B7FF445AEFEF792F920
:104EE0000746002800F04E819B4F34783E7800231F
:104EF000092E03938DF810302C440BD9974BB3F83F
:104F0000008008F09DFCA0EB080083B2B3F5FA7FA7
:104F1000C0F04282924B934A03A92046FFF73CFD22
:104F200040B1914B914A03A92046FFF735FD002877
:104F300040F045823B78FF2B00F023820133DBB247
:104F4000092B3B7000F21D82894B1B781D44052202
:104F500003A92846FDF744F9864B00284FF00102CB
:104F600014BF144600241A7004D0052203A9284651
:104F7000FBF756FB204694E708F062FC7E4B1A686C
:104F80001860A0EB020CBCF1FF0F00F2F681BCF13F
:104F9000000F00F0CE805FFA8CF8784B6D491B68EB
:104FA00001940022A64604F1050A75483A700833B8
:104FB0000A709146144693E0ABEB080B6BF3470184
:104FC00011704FF0010913F8071C11F0FE0F0DD0FE
:104FD0005178BCEB510F4FEA510B80F23381ABEBB0
:104FE000080B6BF3470151704FF0010913F8061CD1
:104FF00011F0FE0F0DD09178BCEB510F4FEA510B21
:1050000080F23581ABEB080B6BF3470191704FF0E9
:10501000010913F8051C11F0FE0F0DD0D178BCEB7F
:10502000510F4FEA510B80F24A81ABEB080B6BF347
:105030004701D1704FF0010913F8041C11F0FE0F65
:105040000DD01179BCEB510F4FEA510B80F2238147
:10505000ABEB080B6BF3470111714FF0010913F82B
:10506000031C11F0FE0F0DD05179BCEB510F4FEA2C
:10507000510B80F24C81ABEB080B6BF34701517184
:105080004FF0010913F8021C11F0FE0F0DD09179B9
:10509000BCEB510F4FEA510B80F22581ABEB080BB3
:1050A0006BF3470191714FF0010913F8011C11F0E6
:1050B000FE0F0DD0D179BCEB510F4FEA510B80F2AE
:1050C0003A81ABEB080B6BF34701D1714FF001094B
:1050D0000EF1010EF24503F1080300F1010022D0A8
:1050E00013F8081C11F0FE0FA3F108023FF46BAF98
:1050F000BCEB510F4FEA510BFFF65EAF6FF3470168
:10510000117013F8081CC90700F127819EF80010E0
:1051100090F800B021F001010BF0010B41EA0B0106
:105120008EF800104FE70B4B87F800902246019C49
:105130001A70009B002B7FF41AAD064B1B78002BD6
:105140007FF415ADCAE600BFDA1B00207B140020F7
:105150002C160020361600207A1400207814002027
:1051600021340008E02E010891540008F02E0108B7
:10517000D81B0020CA1500200C1600207C1400202B
:10518000741A002031782026294486F31188A74C10
:105190000522601CFBF744FA6278A54BD243D2B2D9
:1051A00013F82210A2784A40E17813F822204A40EE
:1051B000217913F822204A4013F8221062794A40DC
:1051C00053F82220227087F3118886F31188994AB8
:1051D000994912788A5CE271D243D2B253F82230F4
:1051E000A37187F3118886F31188944BA5681A6818
:1051F000954205D01D60FEF705F8002800F00C81EF
:10520000002383F31188202282F311888C49207BAC
:1052100008708C49607B087083F3118882F31188D1
:105220008949A07B087083F3118882F3118887492C
:10523000874A03C982E8030083F31188184609B03E
:10524000BDE8F08F6FF34701517013F8071CC907D1
:1052500000F18D809EF8001090F800B021F002015E
:105260000BF0020B41EA0B018EF80010BEE66FF363
:105270004701917013F8061CC90770D49EF80010FE
:1052800090F800B021F004010BF0040B41EA0B018F
:105290008EF80010BDE66FF34701117113F8041C7E
:1052A000C90766D49EF8001090F800B021F01001F4
:1052B0000BF0100B41EA0B018EF80010CFE66FF3F4
:1052C0004701D17013F8051CC9074CD49EF8001093
:1052D00090F800B021F008010BF0080B41EA0B0137
:1052E0008EF80010A8E66FF34701917113F8021CC5
:1052F000C90736D49EF8001090F800B021F04001A4
:105300000BF0400B41EA0B018EF80010CDE66FF375
:105310004701517113F8031CC90726D49EF80010E9
:1053200090F800B021F020010BF0200B41EA0B01B6
:105330008EF80010A6E66FF34701D17113F8012C27
:10534000D20718D49EF80020017802F07F0221F0E5
:105350007F010A438EF80020BAE6012433E60124D7
:1053600057E60124A1E6012466E601248AE6012429
:105370003CE6012473E60124AAE64FF0FF08C44688
:105380000BE608F05DFA334B334A1B781080DA07DE
:1053900002D53248FFF70EFA314C207800283FF44E
:1053A00080AD304B187805220023284403A90393CD
:1053B0008DF810302370FBF733F9012071E52A4B8B
:1053C0002A4A03A92046FFF7E7FA00283FF4B2ADC6
:1053D000274B284A03A92046FFF7DEFA00283FF4AE
:1053E000A9AD254B254A03A92046FFF7D5FA002889
:1053F0003FF4A0AD224B234A204603A9FFF7CCFA85
:1054000000283FF497AD092E03D9124B1B78DB0718
:1054100008D400233B7097E508F012FA1A4B281ABB
:105420001860EDE61948FFF7C5F9F2E7901B002078
:10543000AC360108DB1B0020001500200016002000
:105440002816002082140020CA1B0020A01B002068
:10545000841A00208014002078140020282F0108CE
:10546000CA150020D81B002099350008F82E010825
:105470006D360008042F01087D370008102F010841
:10548000653800081C2F0108CC1B0020602F010884
:105490002DE9F04F022085B00DF082FB002858D195
:1054A000734D744E95F82820698D734F003A18BFDC
:1054B000012231440DF10F00FBF7B2F83C6808F00F
:1054C000BFF9001BB0F5FA7F47D303200DF068FB4E
:1054D00000283ED195F83820698F003A18BF012284
:1054E000314403A8FBF79CF8F37964499DF80F2039
:1054F000DB43DBB211F823309A422AD108F0A0F93D
:105500009DF80C4038605E4B5E4E1D78735DE41A6A
:1055100064B2002C65DD5C4FDFF87881DFF87891AC
:10552000DFF878A138780133013C73555FFA84FBCA
:1055300064B2FCF713FFEDB980B30138C0B20228A2
:1055400028D8AA20FEF7DCFABBF1000F1CD0735D4F
:10555000E8E7002005B0BDE8F08FF479474AE3435F
:10556000DBB212F823309DF80F209A42ADD18DF8AE
:105570000C40C8E7012DE7D1032813D0F920FEF72E
:10558000BFFABBF1000FE2D108F05AF9012005B0D3
:10559000BDE8F08F4F20FEF7B3FAD5E75020FEF7B5
:1055A000AFFAD1E798F800309B07CDD098F80310F8
:1055B00099F800309AF8000098F80120063943F075
:1055C000010321EAE171C00789F8003088F803106F
:1055D00098F80230B8D500912C482D49FFF7EAF829
:1055E000B2E742D0284FDFF8AC80DFF8AC90DFF8AC
:1055F000ACA03878013B0134735564B2FCF7AEFEC1
:105600005DB90138C0B202288CBF4F20A920FEF737
:1056100077FA002CB8D0735DEBE7012DF9D10328A0
:1056200003D0FA20FEF76CFAF3E798F800309B07F6
:10563000EFD098F8031099F800309AF8000098F825
:1056400001200631FF2928BFFF2143F00103C007D5
:1056500089F8003088F8031098F80230D9D5009105
:105660000A480B49FFF7A6F8D3E7012072E700BF0D
:10567000400F0020901B002018160020AC360108B7
:10568000D91B002000150020281600207C2F0108BF
:10569000742F0108841A0020841400208014002034
:1056A000F02808B520D0F12819D0F22827D0F32807
:1056B00020D0F92829D0FA2831D0FB2835D0FC2871
:1056C00028D000F10C03DBB2042B34D8264AF4387E
:1056D0005178012303FA00F00843507008BDFDF72C
:1056E0004BF9214BD87008BDFDF746F91E4B4042DF
:1056F000D87008BDFDF740F91B4B987008BDFDF749
:105700003BF9194B4042987008BDFCF76FFF164BF0
:10571000187108BDFCF76AFF134B587108BDFCF700
:1057200065FF114B4042187108BDFCF75FFF0E4B3F
:105730004042587108BDFD2809D0FE280DD0FF2831
:10574000CCD10A4A137843F00403137008BD074A0A
:10575000137843F00103137008BD044A137843F033
:105760000203137008BD00BF50160020561600201B
:10577000F028624B36D0F12816D0F22829D0F32831
:105780004BD0F92800F09380FA2860D0FB286DD127
:1057900093F90520002A6FDB93F9021093F9042096
:1057A000002942D072B1704793F90320002A1DDD11
:1057B00093F902200021D970002A51D093F90420D6
:1057C000002AF0D193F90530002BECD14C4A13702C
:1057D000704793F90210002923DB93F90420002974
:1057E000E0D122E093F90320002AE1DB00F10C0C68
:1057F0005FFA8CFCBCF1040F93F9042093F90210BA
:1058000018D8F4384FF0010C0CFA00FC587820EA54
:105810000C0058700029C5D107E093F90210002947
:10582000DBDD002193F90420997093F9031000291E
:10583000B8D117E0FD2810B44BD1324C207820F0BD
:105840000100207009B34AB35DF8044B704793F927
:105850000420002A2FDB93F902100029A2D1E4E7EB
:1058600093F904202849002008709BE7FC28BDD14B
:1058700093F90520002A8FDD93F9021093F9042093
:105880000020587100298DD1CFE793F9031000292A
:10589000D9D11D4900200870002AD5D193F90530CF
:1058A000002BD1D1164A13705DF8044B704793F961
:1058B0000420002ACFDD93F9022000211971002A6B
:1058C00080D193F90320002A7FF47CAF0E490A703F
:1058D00078E7FE2807D10B4C207820F002002070DA
:1058E0000029B0D1D1E7FF28ACD1064C207820F0B8
:1058F000040020700029A6D1C7E700BF5016002081
:105900005816002056160020571600203F4B1B78D3
:105910001B0710B53E4C39D53E48FEF74BFF61786A
:105920003D48FEF747FF3D48FEF744FF94F902105B
:105930003B48FEF73FFF3B48FEF73CFF94F903105E
:105940003748FEF737FF3748FEF734FF94F9041065
:105950003348FEF72FFF3348FEF72CFF94F905106C
:105960002F48FEF727FF3048FEF724FF2F4B304823
:105970001978FEF71FFF2F48FEF71CFF2E4B2C480F
:105980001978FEF717FF2D48FEF714FF202383F345
:1059900011884FF0804300225B6A82F31188284906
:1059A0000A689BB29A422AD8264A126826480B6097
:1059B00001685B1A134442F20F704FF47A720021AF
:1059C000E3FB020142F210720023FAF7A7FCE3782E
:1059D000A278134318BF1D4B227980B218BF1880DC
:1059E000637913431CBF1A4B18801A4B1B6863B1B1
:1059F000022222709B680648BDE8104018471148F3
:105A0000026802F580320260D0E710BD80140020E9
:105A100050160020A02F0108C42F0108CC2F010828
:105A2000D02F0108084E0108D42F01085716002076
:105A3000D82F0108DC2F010856160020E02F01089E
:105A400008160020701A0020801A0020101600206E
:105A500012160020F0140020174B1A8810B532B12E
:105A6000164A1268002018800AB1D3689847144B70
:105A70001A8832B1114A1268002018800AB11369DD
:105A800098471049104A00230B701370FCF7CAFCAA
:105A90000E4B1B780BB1FEF7A3FE0D480D490E4CC3
:105AA0000E4A002303700B702370BDE81040136092
:105AB0009380FFF72BBF00BF04160020F0140020D6
:105AC000CC150020361C00202A160020C41500200A
:105AD0005816002056160020571600205016002099
:105AE00010B5214B214A1B780021117023B1204BA6
:105AF00093F900308B4232DB1E4900234B808B80B0
